{
  "contractName": "pool",
  "abi": [
    {
      "inputs": [
        {
          "internalType": "address",
          "name": "_token1",
          "type": "address"
        },
        {
          "internalType": "address",
          "name": "_token2",
          "type": "address"
        },
        {
          "internalType": "uint256",
          "name": "flatRate",
          "type": "uint256"
        }
      ],
      "stateMutability": "nonpayable",
      "type": "constructor"
    },
    {
      "inputs": [],
      "name": "owner",
      "outputs": [
        {
          "internalType": "address",
          "name": "",
          "type": "address"
        }
      ],
      "stateMutability": "view",
      "type": "function"
    },
    {
      "inputs": [],
      "name": "token1",
      "outputs": [
        {
          "internalType": "address",
          "name": "",
          "type": "address"
        }
      ],
      "stateMutability": "view",
      "type": "function"
    },
    {
      "inputs": [],
      "name": "token2",
      "outputs": [
        {
          "internalType": "address",
          "name": "",
          "type": "address"
        }
      ],
      "stateMutability": "view",
      "type": "function"
    },
    {
      "inputs": [],
      "name": "getReserves",
      "outputs": [
        {
          "internalType": "uint256",
          "name": "_token1Reserve",
          "type": "uint256"
        },
        {
          "internalType": "uint256",
          "name": "_token2Reserve",
          "type": "uint256"
        }
      ],
      "stateMutability": "view",
      "type": "function"
    },
    {
      "inputs": [
        {
          "internalType": "uint256",
          "name": "token1amount",
          "type": "uint256"
        }
      ],
      "name": "addLiquidity",
      "outputs": [],
      "stateMutability": "nonpayable",
      "type": "function"
    }
  ],
  "bytecode": "0x608060405234801561001057600080fd5b506040516109bf3803806109bf8339818101604052606081101561003357600080fd5b81019080805190602001909291908051906020019092919080519060200190929190505050826000806101000a81548173ffffffffffffffffffffffffffffffffffffffff021916908373ffffffffffffffffffffffffffffffffffffffff16021790555081600160006101000a81548173ffffffffffffffffffffffffffffffffffffffff021916908373ffffffffffffffffffffffffffffffffffffffff16021790555033600260006101000a81548173ffffffffffffffffffffffffffffffffffffffff021916908373ffffffffffffffffffffffffffffffffffffffff1602179055508060038190555050505061088c806101336000396000f3fe608060405234801561001057600080fd5b50600436106100575760003560e01c80630902f1ac1461005c57806325be124e1461008157806351c6590a146100cb5780638da5cb5b146100f9578063d21220a714610143575b600080fd5b61006461018d565b604051808381526020018281526020019250505060405180910390f35b61008961034b565b604051808273ffffffffffffffffffffffffffffffffffffffff1673ffffffffffffffffffffffffffffffffffffffff16815260200191505060405180910390f35b6100f7600480360360208110156100e157600080fd5b8101908080359060200190929190505050610371565b005b610101610764565b604051808273ffffffffffffffffffffffffffffffffffffffff1673ffffffffffffffffffffffffffffffffffffffff16815260200191505060405180910390f35b61014b61078a565b604051808273ffffffffffffffffffffffffffffffffffffffff1673ffffffffffffffffffffffffffffffffffffffff16815260200191505060405180910390f35b6000806000809054906101000a900473ffffffffffffffffffffffffffffffffffffffff1673ffffffffffffffffffffffffffffffffffffffff166370a08231306040518263ffffffff1660e01b8152600401808273ffffffffffffffffffffffffffffffffffffffff1673ffffffffffffffffffffffffffffffffffffffff16815260200191505060206040518083038186803b15801561022e57600080fd5b505afa158015610242573d6000803e3d6000fd5b505050506040513d602081101561025857600080fd5b81019080805190602001909291905050509150600160009054906101000a900473ffffffffffffffffffffffffffffffffffffffff1673ffffffffffffffffffffffffffffffffffffffff166370a08231306040518263ffffffff1660e01b8152600401808273ffffffffffffffffffffffffffffffffffffffff1673ffffffffffffffffffffffffffffffffffffffff16815260200191505060206040518083038186803b15801561030a57600080fd5b505afa15801561031e573d6000803e3d6000fd5b505050506040513d602081101561033457600080fd5b810190808051906020019092919050505090509091565b600160009054906101000a900473ffffffffffffffffffffffffffffffffffffffff1681565b600260009054906101000a900473ffffffffffffffffffffffffffffffffffffffff1673ffffffffffffffffffffffffffffffffffffffff163373ffffffffffffffffffffffffffffffffffffffff1614610434576040517f08c379a00000000000000000000000000000000000000000000000000000000081526004018080602001828103825260208152602001807f6f6e6c79206f776e65722063616e20646f2074686973206f7065726169746f6e81525060200191505060405180910390fd5b6000809054906101000a900473ffffffffffffffffffffffffffffffffffffffff1673ffffffffffffffffffffffffffffffffffffffff166323b872dd3330846040518463ffffffff1660e01b8152600401808473ffffffffffffffffffffffffffffffffffffffff1673ffffffffffffffffffffffffffffffffffffffff1681526020018373ffffffffffffffffffffffffffffffffffffffff1673ffffffffffffffffffffffffffffffffffffffff1681526020018281526020019350505050602060405180830381600087803b15801561051057600080fd5b505af1158015610524573d6000803e3d6000fd5b505050506040513d602081101561053a57600080fd5b81019080805190602001909291905050506105bd576040517f08c379a000000000000000000000000000000000000000000000000000000000815260040180806020018281038252601b8152602001807f4e6f742074686520726967687420746f6b656e3120616d6f756e74000000000081525060200191505060405180910390fd5b60006105d4600454836107af90919063ffffffff16565b9050600160009054906101000a900473ffffffffffffffffffffffffffffffffffffffff1673ffffffffffffffffffffffffffffffffffffffff166323b872dd3330846040518463ffffffff1660e01b8152600401808473ffffffffffffffffffffffffffffffffffffffff1673ffffffffffffffffffffffffffffffffffffffff1681526020018373ffffffffffffffffffffffffffffffffffffffff1673ffffffffffffffffffffffffffffffffffffffff1681526020018281526020019350505050602060405180830381600087803b1580156106b357600080fd5b505af11580156106c7573d6000803e3d6000fd5b505050506040513d60208110156106dd57600080fd5b8101908080519060200190929190505050610760576040517f08c379a000000000000000000000000000000000000000000000000000000000815260040180806020018281038252601b8152602001807f4e6f742074686520726967687420746f6b656e3220616d6f756e74000000000081525060200191505060405180910390fd5b5050565b600260009054906101000a900473ffffffffffffffffffffffffffffffffffffffff1681565b6000809054906101000a900473ffffffffffffffffffffffffffffffffffffffff1681565b6000808314156107c2576000905061082f565b60008284029050828482816107d357fe5b041461082a576040517f08c379a00000000000000000000000000000000000000000000000000000000081526004018080602001828103825260218152602001806108366021913960400191505060405180910390fd5b809150505b9291505056fe536166654d6174683a206d756c7469706c69636174696f6e206f766572666c6f77a2646970667358221220abd7435383e84153831706683bdf203fe38c62fac9b83eab1fa71004477a9bd664736f6c634300060a0033",
  "immutableReferences": {},
  "source": "// SPDX-License-Identifier: MIT\npragma solidity =0.6.10;\nimport \"./interfaces/SafeMath.sol\";\nimport \"./interfaces/ERC20.sol\";\n\ncontract pool {\n    using SafeMath  for uint;\n\n    address public token1;\n    address public token2;\n    address public owner;\n\n    uint256 private _flatRate;\n    uint256 private _curRate;\n    uint32  private timeStamp;\n\n\n    constructor(address _token1, address _token2, \n        uint256 flatRate) public{\n        token1= _token1;\n        token2= _token2;\n        owner= msg.sender;\n        _flatRate= flatRate;\n    }\n\n    //Modifiers\n    modifier rateCheck( ){\n        uint256 fluctuation = _flatRate.mul(2).div(100);\n        require(_flatRate.sub(fluctuation) <  _curRate &&  _curRate < _flatRate.add(fluctuation),\n        \"price overflow\");\n        _;\n    }\n\n    modifier onlyOwner(){\n        require(msg.sender == owner, \"only owner can do this operaiton\");\n        _;\n    }\n\n    modifier timelock(){\n        require(now > timeStamp + 5 days);\n        _;\n    }\n\n    //view functions\n    function getReserves()public view returns(uint256 _token1Reserve, uint256 _token2Reserve){\n        _token1Reserve= ERC20(token1).balanceOf(address(this));\n        _token2Reserve= ERC20(token2).balanceOf(address(this));\n    }\n\n    //actions\n    function addLiquidity(uint256 token1amount)public onlyOwner{\n    require(ERC20(token1).transferFrom(msg.sender, address(this),token1amount), \n        \"Not the right token1 amount\");\n    uint256 token2amount = token1amount.mul(_curRate);\n    require(ERC20(token2).transferFrom(msg.sender, address(this),token2amount), \n        \"Not the right token2 amount\");\n\n\n    }\n  \n\n}\n",
  "sourcePath": "/Users/yuanboli/Documents/GitHub/Exchange_ECNY/contracts/pool.sol",
  "compiler": {
    "name": "solc",
    "version": "0.6.10+commit.00c0fcaf.Emscripten.clang"
  },
  "schemaVersion": "3.4.3",
  "updatedAt": "2021-08-28T16:05:51.670Z",
  "devdoc": {
    "methods": {}
  },
  "userdoc": {
    "methods": {}
  }
}