{
  "contractName": "pool",
  "abi": [
    {
      "inputs": [
        {
          "internalType": "address",
          "name": "_token1",
          "type": "address"
        },
        {
          "internalType": "address",
          "name": "_token2",
          "type": "address"
        },
        {
          "internalType": "uint256",
          "name": "flatRate",
          "type": "uint256"
        }
      ],
      "stateMutability": "nonpayable",
      "type": "constructor"
    },
    {
      "inputs": [],
      "name": "owner",
      "outputs": [
        {
          "internalType": "address",
          "name": "",
          "type": "address"
        }
      ],
      "stateMutability": "view",
      "type": "function"
    },
    {
      "inputs": [],
      "name": "token1",
      "outputs": [
        {
          "internalType": "address",
          "name": "",
          "type": "address"
        }
      ],
      "stateMutability": "view",
      "type": "function"
    },
    {
      "inputs": [],
      "name": "token2",
      "outputs": [
        {
          "internalType": "address",
          "name": "",
          "type": "address"
        }
      ],
      "stateMutability": "view",
      "type": "function"
    },
    {
      "inputs": [],
      "name": "getReserves",
      "outputs": [
        {
          "internalType": "uint256",
          "name": "_token1Reserve",
          "type": "uint256"
        },
        {
          "internalType": "uint256",
          "name": "_token2Reserve",
          "type": "uint256"
        }
      ],
      "stateMutability": "view",
      "type": "function"
    },
    {
      "inputs": [
        {
          "internalType": "uint256",
          "name": "token1amount",
          "type": "uint256"
        }
      ],
      "name": "addLiquidity",
      "outputs": [],
      "stateMutability": "nonpayable",
      "type": "function"
    },
    {
      "inputs": [
        {
          "internalType": "uint256",
          "name": "token1amount",
          "type": "uint256"
        }
      ],
      "name": "retrieveLiquidity",
      "outputs": [],
      "stateMutability": "nonpayable",
      "type": "function"
    },
    {
      "inputs": [
        {
          "internalType": "uint256",
          "name": "token1amount",
          "type": "uint256"
        },
        {
          "internalType": "uint256",
          "name": "token2amount",
          "type": "uint256"
        }
      ],
      "name": "swap",
      "outputs": [],
      "stateMutability": "nonpayable",
      "type": "function"
    }
  ],
  "bytecode": "0x608060405234801561001057600080fd5b506040516118353803806118358339818101604052606081101561003357600080fd5b81019080805190602001909291908051906020019092919080519060200190929190505050826000806101000a81548173ffffffffffffffffffffffffffffffffffffffff021916908373ffffffffffffffffffffffffffffffffffffffff16021790555081600160006101000a81548173ffffffffffffffffffffffffffffffffffffffff021916908373ffffffffffffffffffffffffffffffffffffffff16021790555033600260006101000a81548173ffffffffffffffffffffffffffffffffffffffff021916908373ffffffffffffffffffffffffffffffffffffffff16021790555080600381905550426005819055505050506116fb8061013a6000396000f3fe608060405234801561001057600080fd5b506004361061007d5760003560e01c806382120cd31161005b57806382120cd31461011f5780638da5cb5b1461014d578063d21220a714610197578063d96073cf146101e15761007d565b80630902f1ac1461008257806325be124e146100a757806351c6590a146100f1575b600080fd5b61008a610219565b604051808381526020018281526020019250505060405180910390f35b6100af6103d7565b604051808273ffffffffffffffffffffffffffffffffffffffff1673ffffffffffffffffffffffffffffffffffffffff16815260200191505060405180910390f35b61011d6004803603602081101561010757600080fd5b81019080803590602001909291905050506103fd565b005b61014b6004803603602081101561013557600080fd5b81019080803590602001909291905050506107f0565b005b6101556109cd565b604051808273ffffffffffffffffffffffffffffffffffffffff1673ffffffffffffffffffffffffffffffffffffffff16815260200191505060405180910390f35b61019f6109f3565b604051808273ffffffffffffffffffffffffffffffffffffffff1673ffffffffffffffffffffffffffffffffffffffff16815260200191505060405180910390f35b610217600480360360408110156101f757600080fd5b810190808035906020019092919080359060200190929190505050610a18565b005b6000806000809054906101000a900473ffffffffffffffffffffffffffffffffffffffff1673ffffffffffffffffffffffffffffffffffffffff166370a08231306040518263ffffffff1660e01b8152600401808273ffffffffffffffffffffffffffffffffffffffff1673ffffffffffffffffffffffffffffffffffffffff16815260200191505060206040518083038186803b1580156102ba57600080fd5b505afa1580156102ce573d6000803e3d6000fd5b505050506040513d60208110156102e457600080fd5b81019080805190602001909291905050509150600160009054906101000a900473ffffffffffffffffffffffffffffffffffffffff1673ffffffffffffffffffffffffffffffffffffffff166370a08231306040518263ffffffff1660e01b8152600401808273ffffffffffffffffffffffffffffffffffffffff1673ffffffffffffffffffffffffffffffffffffffff16815260200191505060206040518083038186803b15801561039657600080fd5b505afa1580156103aa573d6000803e3d6000fd5b505050506040513d60208110156103c057600080fd5b810190808051906020019092919050505090509091565b600160009054906101000a900473ffffffffffffffffffffffffffffffffffffffff1681565b600260009054906101000a900473ffffffffffffffffffffffffffffffffffffffff1673ffffffffffffffffffffffffffffffffffffffff163373ffffffffffffffffffffffffffffffffffffffff16146104c0576040517f08c379a00000000000000000000000000000000000000000000000000000000081526004018080602001828103825260208152602001807f6f6e6c79206f776e65722063616e20646f2074686973206f7065726169746f6e81525060200191505060405180910390fd5b6000809054906101000a900473ffffffffffffffffffffffffffffffffffffffff1673ffffffffffffffffffffffffffffffffffffffff166323b872dd3330846040518463ffffffff1660e01b8152600401808473ffffffffffffffffffffffffffffffffffffffff1673ffffffffffffffffffffffffffffffffffffffff1681526020018373ffffffffffffffffffffffffffffffffffffffff1673ffffffffffffffffffffffffffffffffffffffff1681526020018281526020019350505050602060405180830381600087803b15801561059c57600080fd5b505af11580156105b0573d6000803e3d6000fd5b505050506040513d60208110156105c657600080fd5b8101908080519060200190929190505050610649576040517f08c379a000000000000000000000000000000000000000000000000000000000815260040180806020018281038252601b8152602001807f4e6f742074686520726967687420746f6b656e3120616d6f756e74000000000081525060200191505060405180910390fd5b6000610660600454836110cc90919063ffffffff16565b9050600160009054906101000a900473ffffffffffffffffffffffffffffffffffffffff1673ffffffffffffffffffffffffffffffffffffffff166323b872dd3330846040518463ffffffff1660e01b8152600401808473ffffffffffffffffffffffffffffffffffffffff1673ffffffffffffffffffffffffffffffffffffffff1681526020018373ffffffffffffffffffffffffffffffffffffffff1673ffffffffffffffffffffffffffffffffffffffff1681526020018281526020019350505050602060405180830381600087803b15801561073f57600080fd5b505af1158015610753573d6000803e3d6000fd5b505050506040513d602081101561076957600080fd5b81019080805190602001909291905050506107ec576040517f08c379a000000000000000000000000000000000000000000000000000000000815260040180806020018281038252601b8152602001807f4e6f742074686520726967687420746f6b656e3220616d6f756e74000000000081525060200191505060405180910390fd5b5050565b600260009054906101000a900473ffffffffffffffffffffffffffffffffffffffff1673ffffffffffffffffffffffffffffffffffffffff163373ffffffffffffffffffffffffffffffffffffffff16146108b3576040517f08c379a00000000000000000000000000000000000000000000000000000000081526004018080602001828103825260208152602001807f6f6e6c79206f776e65722063616e20646f2074686973206f7065726169746f6e81525060200191505060405180910390fd5b62069780600554014211610912576040517f08c379a00000000000000000000000000000000000000000000000000000000081526004018080602001828103825260398152602001806116426039913960400191505060405180910390fd5b6109606000809054906101000a900473ffffffffffffffffffffffffffffffffffffffff16600260009054906101000a900473ffffffffffffffffffffffffffffffffffffffff1683611152565b6109c3600160009054906101000a900473ffffffffffffffffffffffffffffffffffffffff16600260009054906101000a900473ffffffffffffffffffffffffffffffffffffffff166109be600454856110cc90919063ffffffff16565b611152565b4260058190555050565b600260009054906101000a900473ffffffffffffffffffffffffffffffffffffffff1681565b6000809054906101000a900473ffffffffffffffffffffffffffffffffffffffff1681565b6000610a436064610a3560026003546110cc90919063ffffffff16565b61139f90919063ffffffff16565b9050600454610a5d826003546113e990919063ffffffff16565b108015610a7f5750610a7a8160035461143390919063ffffffff16565b600454105b610af1576040517f08c379a000000000000000000000000000000000000000000000000000000000815260040180806020018281038252600e8152602001807f7072696365206f766572666c6f7700000000000000000000000000000000000081525060200191505060405180910390fd5b6000831480610b005750600082145b610b72576040517f08c379a000000000000000000000000000000000000000000000000000000000815260040180806020018281038252601c8152602001807f596f752063616e206f6e6c7920696e707574206f6e6520746f6b656e0000000081525060200191505060405180910390fd5b600080610b7d610219565b915091506000610b9682846110cc90919063ffffffff16565b90506000610bae6064836110cc90919063ffffffff16565b9050600080881415610bc1576000610bc4565b60015b90508015610e49576000809054906101000a900473ffffffffffffffffffffffffffffffffffffffff1673ffffffffffffffffffffffffffffffffffffffff166323b872dd33308b6040518463ffffffff1660e01b8152600401808473ffffffffffffffffffffffffffffffffffffffff1673ffffffffffffffffffffffffffffffffffffffff1681526020018373ffffffffffffffffffffffffffffffffffffffff1673ffffffffffffffffffffffffffffffffffffffff1681526020018281526020019350505050602060405180830381600087803b158015610ca857600080fd5b505af1158015610cbc573d6000803e3d6000fd5b505050506040513d6020811015610cd257600080fd5b8101908080519060200190929190505050610cec57600080fd5b6000610d2585610d17610d088c8a61143390919063ffffffff16565b8661139f90919063ffffffff16565b6113e990919063ffffffff16565b90506000610d60610d3f83886113e990919063ffffffff16565b610d528c8a61143390919063ffffffff16565b61139f90919063ffffffff16565b905080610d8c6064610d7e60626003546110cc90919063ffffffff16565b61139f90919063ffffffff16565b108015610dc05750610dbd6064610daf60666003546110cc90919063ffffffff16565b61139f90919063ffffffff16565b81105b610e15576040517f08c379a000000000000000000000000000000000000000000000000000000000815260040180806020018281038252602a81526020018061169c602a913960400191505060405180910390fd5b610e42600160009054906101000a900473ffffffffffffffffffffffffffffffffffffffff163384611152565b50506110c2565b600160009054906101000a900473ffffffffffffffffffffffffffffffffffffffff1673ffffffffffffffffffffffffffffffffffffffff166323b872dd33308a6040518463ffffffff1660e01b8152600401808473ffffffffffffffffffffffffffffffffffffffff1673ffffffffffffffffffffffffffffffffffffffff1681526020018373ffffffffffffffffffffffffffffffffffffffff1673ffffffffffffffffffffffffffffffffffffffff1681526020018281526020019350505050602060405180830381600087803b158015610f2657600080fd5b505af1158015610f3a573d6000803e3d6000fd5b505050506040513d6020811015610f5057600080fd5b8101908080519060200190929190505050610f6a57600080fd5b6000610fa386610f95610f868b8961143390919063ffffffff16565b8661139f90919063ffffffff16565b6113e990919063ffffffff16565b90506000610fde610fbd8a8861143390919063ffffffff16565b610fd0848a6113e990919063ffffffff16565b61139f90919063ffffffff16565b90508061100a6064610ffc60626003546110cc90919063ffffffff16565b61139f90919063ffffffff16565b10801561103e575061103b606461102d60666003546110cc90919063ffffffff16565b61139f90919063ffffffff16565b81105b611093576040517f08c379a000000000000000000000000000000000000000000000000000000000815260040180806020018281038252602a81526020018061169c602a913960400191505060405180910390fd5b6110bf6000809054906101000a900473ffffffffffffffffffffffffffffffffffffffff163384611152565b50505b5050505050505050565b6000808314156110df576000905061114c565b60008284029050828482816110f057fe5b0414611147576040517f08c379a000000000000000000000000000000000000000000000000000000000815260040180806020018281038252602181526020018061167b6021913960400191505060405180910390fd5b809150505b92915050565b600060608473ffffffffffffffffffffffffffffffffffffffff166040518060400160405280601981526020017f7472616e7366657228616464726573732c75696e743235362900000000000000815250805190602001208585604051602401808373ffffffffffffffffffffffffffffffffffffffff1673ffffffffffffffffffffffffffffffffffffffff16815260200182815260200192505050604051602081830303815290604052907bffffffffffffffffffffffffffffffffffffffffffffffffffffffff19166020820180517bffffffffffffffffffffffffffffffffffffffffffffffffffffffff83818316178352505050506040518082805190602001908083835b6020831061127f578051825260208201915060208101905060208303925061125c565b6001836020036101000a0380198251168184511680821785525050505050509050019150506000604051808303816000865af19150503d80600081146112e1576040519150601f19603f3d011682016040523d82523d6000602084013e6112e6565b606091505b50915091508180156113265750600081511480611325575080806020019051602081101561131357600080fd5b81019080805190602001909291905050505b5b611398576040517f08c379a00000000000000000000000000000000000000000000000000000000081526004018080602001828103825260158152602001807f746f6b656e207472616e73666572206661696c6564000000000000000000000081525060200191505060405180910390fd5b5050505050565b60006113e183836040518060400160405280601a81526020017f536166654d6174683a206469766973696f6e206279207a65726f0000000000008152506114bb565b905092915050565b600061142b83836040518060400160405280601e81526020017f536166654d6174683a207375627472616374696f6e206f766572666c6f770000815250611581565b905092915050565b6000808284019050838110156114b1576040517f08c379a000000000000000000000000000000000000000000000000000000000815260040180806020018281038252601b8152602001807f536166654d6174683a206164646974696f6e206f766572666c6f77000000000081525060200191505060405180910390fd5b8091505092915050565b60008083118290611567576040517f08c379a00000000000000000000000000000000000000000000000000000000081526004018080602001828103825283818151815260200191508051906020019080838360005b8381101561152c578082015181840152602081019050611511565b50505050905090810190601f1680156115595780820380516001836020036101000a031916815260200191505b509250505060405180910390fd5b50600083858161157357fe5b049050809150509392505050565b600083831115829061162e576040517f08c379a00000000000000000000000000000000000000000000000000000000081526004018080602001828103825283818151815260200191508051906020019080838360005b838110156115f35780820151818401526020810190506115d8565b50505050905090810190601f1680156116205780820380516001836020036101000a031916815260200191505b509250505060405180910390fd5b506000838503905080915050939250505056fe796f75206e65656420746f207761697420666f722035206461797320756e74696c206e657874207265747269657665206f7065726174696f6e536166654d6174683a206d756c7469706c69636174696f6e206f766572666c6f775261746520697320756e62616c616e63656420616674657220737761702e2053574150204641494c4544a26469706673582212207b3a46aef60bd376029fb06dcac50ce46429993c4b6ab6ef0e6305e99cd1abfe64736f6c634300060a0033",
  "immutableReferences": {},
  "source": "// SPDX-License-Identifier: MIT\npragma solidity =0.6.10;\nimport \"./interfaces/SafeMath.sol\";\nimport \"./interfaces/ERC20.sol\";\n\ncontract pool {\n    using SafeMath  for uint;\n\n    address public token1;\n    address public token2;\n    address public owner;\n\n    //_flateRate = token1Amount/token2Amount\n    uint256 private _flatRate;\n    uint256 private _curRate;\n    uint256 private timeStamp;\n\n    bytes4 private constant SELECTOR = bytes4(keccak256(bytes('transfer(address,uint256)')));\n\n    constructor(address _token1, address _token2, \n        uint256 flatRate) public{\n        token1= _token1;\n        token2= _token2;\n        owner= msg.sender;\n        _flatRate= flatRate;\n        timeStamp=now;\n    }\n\n    //Help functions\n    function _safeTransfer(address token, address to, uint256 value)private{\n        (bool success, bytes memory data) = token.call(\n            abi.encodeWithSelector(SELECTOR, to, value));\n        require(success && (data.length ==0 || abi.decode(data, (bool))), \n        \"token transfer failed\");\n    }\n\n\n    //Modifiers\n    modifier rateCheck(){\n        uint256 fluctuation = _flatRate.mul(2).div(100);\n        require(_flatRate.sub(fluctuation) <  _curRate &&  _curRate < _flatRate.add(fluctuation),\n        \"price overflow\");\n        _;\n    }\n\n    modifier onlyOwner(){\n        require(msg.sender == owner, \"only owner can do this operaiton\");\n        _;\n    }\n\n    //view functions\n    function getReserves()public view returns(uint256 _token1Reserve, uint256 _token2Reserve){\n        _token1Reserve= ERC20(token1).balanceOf(address(this));\n        _token2Reserve= ERC20(token2).balanceOf(address(this));\n    }\n\n    //actions\n    function addLiquidity(uint256 token1amount)public onlyOwner{\n    require(ERC20(token1).transferFrom(msg.sender, address(this),token1amount), \n        \"Not the right token1 amount\");\n    uint256 token2amount = token1amount.mul(_curRate);\n    require(ERC20(token2).transferFrom(msg.sender, address(this),token2amount), \n        \"Not the right token2 amount\");\n    }\n\n    function retrieveLiquidity(uint256 token1amount) public onlyOwner {\n        require(now > timeStamp + 5 days, \"you need to wait for 5 days until next retrieve operation\");\n        _safeTransfer(token1, owner, token1amount);\n        _safeTransfer(token2, owner, token1amount.mul(_curRate));\n        timeStamp=now;\n        }\n\n\n    function swap(uint256 token1amount, uint256 token2amount)public rateCheck{\n        require(token1amount ==0 || token2amount==0, \n        \"You can only input one token\");\n        (uint256 _reserve1, uint256 _reserve2) = getReserves(); \n        uint256 k_origin = _reserve1.mul(_reserve2);\n        uint256 k_aug = k_origin.mul(100);\n\n        //Make sure which is the input token\n        bool token1Input = token1amount !=0 ? true : false;\n        if(token1Input){\n            require(ERC20(token1).transferFrom(msg.sender, address(this),token1amount));\n            uint256 token2Output = k_aug.div(_reserve1.add(token1amount)).sub(_reserve2);\n            //rateCheck\n            uint256 _curRateTempt = (_reserve1.add(token1amount)).div(_reserve2.sub(token2Output));\n            require(_flatRate.mul(98).div(100) <  _curRateTempt &&  _curRateTempt < _flatRate.mul(102).div(100),\n                    \"Rate is unbalanced after swap. SWAP FAILED\");\n            _safeTransfer(token2, msg.sender, token2Output);\n\n        }\n        else{\n            require(ERC20(token2).transferFrom(msg.sender, address(this),token2amount));\n            uint256 token1Output = k_aug.div(_reserve2.add(token2amount)).sub(_reserve1);\n             //rateCheck\n            uint256 _curRateTempt = (_reserve1.sub(token1Output)).div(_reserve2.add(token2amount));\n            require(_flatRate.mul(98).div(100) <  _curRateTempt &&  _curRateTempt < _flatRate.mul(102).div(100),\n                    \"Rate is unbalanced after swap. SWAP FAILED\");\n            _safeTransfer(token1, msg.sender, token1Output);\n        }\n    }\n  \n\n}\n",
  "sourcePath": "/Users/yuanboli/Documents/GitHub/Exchange_ECNY/contracts/pool.sol",
  "compiler": {
    "name": "solc",
    "version": "0.6.10+commit.00c0fcaf.Emscripten.clang"
  },
  "schemaVersion": "3.4.3",
  "updatedAt": "2021-08-30T15:03:33.594Z",
  "devdoc": {
    "methods": {}
  },
  "userdoc": {
    "methods": {}
  }
}