{
  "contractName": "pool",
  "abi": [
    {
      "inputs": [
        {
          "internalType": "address",
          "name": "_token1",
          "type": "address"
        },
        {
          "internalType": "address",
          "name": "_token2",
          "type": "address"
        },
        {
          "internalType": "uint256",
          "name": "flatRate",
          "type": "uint256"
        }
      ],
      "stateMutability": "nonpayable",
      "type": "constructor"
    },
    {
      "inputs": [],
      "name": "owner",
      "outputs": [
        {
          "internalType": "address",
          "name": "",
          "type": "address"
        }
      ],
      "stateMutability": "view",
      "type": "function"
    },
    {
      "inputs": [],
      "name": "token1",
      "outputs": [
        {
          "internalType": "address",
          "name": "",
          "type": "address"
        }
      ],
      "stateMutability": "view",
      "type": "function"
    },
    {
      "inputs": [],
      "name": "token2",
      "outputs": [
        {
          "internalType": "address",
          "name": "",
          "type": "address"
        }
      ],
      "stateMutability": "view",
      "type": "function"
    },
    {
      "inputs": [],
      "name": "getReserves",
      "outputs": [
        {
          "internalType": "uint256",
          "name": "_token1Reserve",
          "type": "uint256"
        },
        {
          "internalType": "uint256",
          "name": "_token2Reserve",
          "type": "uint256"
        }
      ],
      "stateMutability": "view",
      "type": "function"
    },
    {
      "inputs": [
        {
          "internalType": "uint256",
          "name": "token1amount",
          "type": "uint256"
        }
      ],
      "name": "addLiquidity",
      "outputs": [],
      "stateMutability": "nonpayable",
      "type": "function"
    },
    {
      "inputs": [
        {
          "internalType": "uint256",
          "name": "token1amount",
          "type": "uint256"
        }
      ],
      "name": "retrieveLiquidity",
      "outputs": [],
      "stateMutability": "nonpayable",
      "type": "function"
    }
  ],
  "bytecode": "0x608060405234801561001057600080fd5b50604051610e6a380380610e6a8339818101604052606081101561003357600080fd5b81019080805190602001909291908051906020019092919080519060200190929190505050826000806101000a81548173ffffffffffffffffffffffffffffffffffffffff021916908373ffffffffffffffffffffffffffffffffffffffff16021790555081600160006101000a81548173ffffffffffffffffffffffffffffffffffffffff021916908373ffffffffffffffffffffffffffffffffffffffff16021790555033600260006101000a81548173ffffffffffffffffffffffffffffffffffffffff021916908373ffffffffffffffffffffffffffffffffffffffff16021790555080600381905550505050610d37806101336000396000f3fe608060405234801561001057600080fd5b50600436106100625760003560e01c80630902f1ac1461006757806325be124e1461008c57806351c6590a146100d657806382120cd3146101045780638da5cb5b14610132578063d21220a71461017c575b600080fd5b61006f6101c6565b604051808381526020018281526020019250505060405180910390f35b610094610384565b604051808273ffffffffffffffffffffffffffffffffffffffff1673ffffffffffffffffffffffffffffffffffffffff16815260200191505060405180910390f35b610102600480360360208110156100ec57600080fd5b81019080803590602001909291905050506103aa565b005b6101306004803603602081101561011a57600080fd5b810190808035906020019092919050505061079d565b005b61013a610989565b604051808273ffffffffffffffffffffffffffffffffffffffff1673ffffffffffffffffffffffffffffffffffffffff16815260200191505060405180910390f35b6101846109af565b604051808273ffffffffffffffffffffffffffffffffffffffff1673ffffffffffffffffffffffffffffffffffffffff16815260200191505060405180910390f35b6000806000809054906101000a900473ffffffffffffffffffffffffffffffffffffffff1673ffffffffffffffffffffffffffffffffffffffff166370a08231306040518263ffffffff1660e01b8152600401808273ffffffffffffffffffffffffffffffffffffffff1673ffffffffffffffffffffffffffffffffffffffff16815260200191505060206040518083038186803b15801561026757600080fd5b505afa15801561027b573d6000803e3d6000fd5b505050506040513d602081101561029157600080fd5b81019080805190602001909291905050509150600160009054906101000a900473ffffffffffffffffffffffffffffffffffffffff1673ffffffffffffffffffffffffffffffffffffffff166370a08231306040518263ffffffff1660e01b8152600401808273ffffffffffffffffffffffffffffffffffffffff1673ffffffffffffffffffffffffffffffffffffffff16815260200191505060206040518083038186803b15801561034357600080fd5b505afa158015610357573d6000803e3d6000fd5b505050506040513d602081101561036d57600080fd5b810190808051906020019092919050505090509091565b600160009054906101000a900473ffffffffffffffffffffffffffffffffffffffff1681565b600260009054906101000a900473ffffffffffffffffffffffffffffffffffffffff1673ffffffffffffffffffffffffffffffffffffffff163373ffffffffffffffffffffffffffffffffffffffff161461046d576040517f08c379a00000000000000000000000000000000000000000000000000000000081526004018080602001828103825260208152602001807f6f6e6c79206f776e65722063616e20646f2074686973206f7065726169746f6e81525060200191505060405180910390fd5b6000809054906101000a900473ffffffffffffffffffffffffffffffffffffffff1673ffffffffffffffffffffffffffffffffffffffff166323b872dd3330846040518463ffffffff1660e01b8152600401808473ffffffffffffffffffffffffffffffffffffffff1673ffffffffffffffffffffffffffffffffffffffff1681526020018373ffffffffffffffffffffffffffffffffffffffff1673ffffffffffffffffffffffffffffffffffffffff1681526020018281526020019350505050602060405180830381600087803b15801561054957600080fd5b505af115801561055d573d6000803e3d6000fd5b505050506040513d602081101561057357600080fd5b81019080805190602001909291905050506105f6576040517f08c379a000000000000000000000000000000000000000000000000000000000815260040180806020018281038252601b8152602001807f4e6f742074686520726967687420746f6b656e3120616d6f756e74000000000081525060200191505060405180910390fd5b600061060d600454836109d490919063ffffffff16565b9050600160009054906101000a900473ffffffffffffffffffffffffffffffffffffffff1673ffffffffffffffffffffffffffffffffffffffff166323b872dd3330846040518463ffffffff1660e01b8152600401808473ffffffffffffffffffffffffffffffffffffffff1673ffffffffffffffffffffffffffffffffffffffff1681526020018373ffffffffffffffffffffffffffffffffffffffff1673ffffffffffffffffffffffffffffffffffffffff1681526020018281526020019350505050602060405180830381600087803b1580156106ec57600080fd5b505af1158015610700573d6000803e3d6000fd5b505050506040513d602081101561071657600080fd5b8101908080519060200190929190505050610799576040517f08c379a000000000000000000000000000000000000000000000000000000000815260040180806020018281038252601b8152602001807f4e6f742074686520726967687420746f6b656e3220616d6f756e74000000000081525060200191505060405180910390fd5b5050565b600260009054906101000a900473ffffffffffffffffffffffffffffffffffffffff1673ffffffffffffffffffffffffffffffffffffffff163373ffffffffffffffffffffffffffffffffffffffff1614610860576040517f08c379a00000000000000000000000000000000000000000000000000000000081526004018080602001828103825260208152602001807f6f6e6c79206f776e65722063616e20646f2074686973206f7065726169746f6e81525060200191505060405180910390fd5b62069780600560009054906101000a900463ffffffff160163ffffffff1642116108d5576040517f08c379a0000000000000000000000000000000000000000000000000000000008152600401808060200182810382526039815260200180610ca86039913960400191505060405180910390fd5b6109236000809054906101000a900473ffffffffffffffffffffffffffffffffffffffff16600260009054906101000a900473ffffffffffffffffffffffffffffffffffffffff1683610a5a565b610986600160009054906101000a900473ffffffffffffffffffffffffffffffffffffffff16600260009054906101000a900473ffffffffffffffffffffffffffffffffffffffff16610981600454856109d490919063ffffffff16565b610a5a565b50565b600260009054906101000a900473ffffffffffffffffffffffffffffffffffffffff1681565b6000809054906101000a900473ffffffffffffffffffffffffffffffffffffffff1681565b6000808314156109e75760009050610a54565b60008284029050828482816109f857fe5b0414610a4f576040517f08c379a0000000000000000000000000000000000000000000000000000000008152600401808060200182810382526021815260200180610ce16021913960400191505060405180910390fd5b809150505b92915050565b600060608473ffffffffffffffffffffffffffffffffffffffff166040518060400160405280601981526020017f7472616e7366657228616464726573732c75696e743235362900000000000000815250805190602001208585604051602401808373ffffffffffffffffffffffffffffffffffffffff1673ffffffffffffffffffffffffffffffffffffffff16815260200182815260200192505050604051602081830303815290604052907bffffffffffffffffffffffffffffffffffffffffffffffffffffffff19166020820180517bffffffffffffffffffffffffffffffffffffffffffffffffffffffff83818316178352505050506040518082805190602001908083835b60208310610b875780518252602082019150602081019050602083039250610b64565b6001836020036101000a0380198251168184511680821785525050505050509050019150506000604051808303816000865af19150503d8060008114610be9576040519150601f19603f3d011682016040523d82523d6000602084013e610bee565b606091505b5091509150818015610c2e5750600081511480610c2d5750808060200190516020811015610c1b57600080fd5b81019080805190602001909291905050505b5b610ca0576040517f08c379a00000000000000000000000000000000000000000000000000000000081526004018080602001828103825260158152602001807f746f6b656e207472616e73666572206661696c6564000000000000000000000081525060200191505060405180910390fd5b505050505056fe796f75206e65656420746f207761697420666f722035206461797320756e74696c206e657874207265747269657665206f7065726174696f6e536166654d6174683a206d756c7469706c69636174696f6e206f766572666c6f77a2646970667358221220700fbed51f77da23dd85fc3d79ee43edcf64389f70ed0662ef70e63570dec0f664736f6c634300060a0033",
  "immutableReferences": {},
  "source": "// SPDX-License-Identifier: MIT\npragma solidity =0.6.10;\nimport \"./interfaces/SafeMath.sol\";\nimport \"./interfaces/ERC20.sol\";\n\ncontract pool {\n    using SafeMath  for uint;\n\n    address public token1;\n    address public token2;\n    address public owner;\n\n    uint256 private _flatRate;\n    uint256 private _curRate;\n    uint32  private timeStamp;\n\n    bytes4 private constant SELECTOR = bytes4(keccak256(bytes('transfer(address,uint256)')));\n\n\n    constructor(address _token1, address _token2, \n        uint256 flatRate) public{\n        token1= _token1;\n        token2= _token2;\n        owner= msg.sender;\n        _flatRate= flatRate;\n    }\n\n    //Help functions\n    function _safeTransfer(address token, address to, uint256 value)private{\n        (bool success, bytes memory data) = token.call(\n            abi.encodeWithSelector(SELECTOR, to, value));\n        require(success && (data.length ==0 || abi.decode(data, (bool))), \n        \"token transfer failed\");\n    }\n\n    //Modifiers\n    modifier rateCheck( ){\n        uint256 fluctuation = _flatRate.mul(2).div(100);\n        require(_flatRate.sub(fluctuation) <  _curRate &&  _curRate < _flatRate.add(fluctuation),\n        \"price overflow\");\n        _;\n    }\n\n    modifier onlyOwner(){\n        require(msg.sender == owner, \"only owner can do this operaiton\");\n        _;\n    }\n\n    //view functions\n    function getReserves()public view returns(uint256 _token1Reserve, uint256 _token2Reserve){\n        _token1Reserve= ERC20(token1).balanceOf(address(this));\n        _token2Reserve= ERC20(token2).balanceOf(address(this));\n    }\n\n    //actions\n    function addLiquidity(uint256 token1amount)public onlyOwner{\n    require(ERC20(token1).transferFrom(msg.sender, address(this),token1amount), \n        \"Not the right token1 amount\");\n    uint256 token2amount = token1amount.mul(_curRate);\n    require(ERC20(token2).transferFrom(msg.sender, address(this),token2amount), \n        \"Not the right token2 amount\");\n    }\n\n    function retrieveLiquidity(uint256 token1amount) public onlyOwner {\n        require(now > timeStamp + 5 days, \"you need to wait for 5 days until next retrieve operation\");\n        _safeTransfer(token1, owner, token1amount);\n        _safeTransfer(token2, owner, token1amount.mul(_curRate));\n        }\n  \n\n}\n",
  "sourcePath": "/Users/yuanboli/Documents/GitHub/Exchange_ECNY/contracts/pool.sol",
  "compiler": {
    "name": "solc",
    "version": "0.6.10+commit.00c0fcaf.Emscripten.clang"
  },
  "schemaVersion": "3.4.3",
  "updatedAt": "2021-08-29T12:57:49.065Z",
  "devdoc": {
    "methods": {}
  },
  "userdoc": {
    "methods": {}
  }
}